{
  "contractName": "Kittycontract",
  "abi": [
    {
      "anonymous": false,
      "inputs": [
        {
          "indexed": true,
          "internalType": "address",
          "name": "owner",
          "type": "address"
        },
        {
          "indexed": true,
          "internalType": "address",
          "name": "approved",
          "type": "address"
        },
        {
          "indexed": true,
          "internalType": "uint256",
          "name": "tokenId",
          "type": "uint256"
        }
      ],
      "name": "Approval",
      "type": "event"
    },
    {
      "anonymous": false,
      "inputs": [
        {
          "indexed": false,
          "internalType": "address",
          "name": "owner",
          "type": "address"
        },
        {
          "indexed": false,
          "internalType": "uint256",
          "name": "kittenId",
          "type": "uint256"
        },
        {
          "indexed": false,
          "internalType": "uint256",
          "name": "mumId",
          "type": "uint256"
        },
        {
          "indexed": false,
          "internalType": "uint256",
          "name": "dadId",
          "type": "uint256"
        },
        {
          "indexed": false,
          "internalType": "uint256",
          "name": "genes",
          "type": "uint256"
        }
      ],
      "name": "Birth",
      "type": "event"
    },
    {
      "anonymous": false,
      "inputs": [
        {
          "indexed": true,
          "internalType": "address",
          "name": "from",
          "type": "address"
        },
        {
          "indexed": true,
          "internalType": "address",
          "name": "to",
          "type": "address"
        },
        {
          "indexed": true,
          "internalType": "uint256",
          "name": "tokenId",
          "type": "uint256"
        }
      ],
      "name": "Transfer",
      "type": "event"
    },
    {
      "constant": false,
      "inputs": [
        {
          "internalType": "uint256",
          "name": "genes",
          "type": "uint256"
        }
      ],
      "name": "createKittyGen0",
      "outputs": [
        {
          "internalType": "uint256",
          "name": "",
          "type": "uint256"
        }
      ],
      "payable": false,
      "stateMutability": "nonpayable",
      "type": "function"
    },
    {
      "constant": true,
      "inputs": [
        {
          "internalType": "uint256",
          "name": "id",
          "type": "uint256"
        }
      ],
      "name": "getKitty",
      "outputs": [
        {
          "internalType": "uint256",
          "name": "mumId",
          "type": "uint256"
        },
        {
          "internalType": "uint256",
          "name": "dadId",
          "type": "uint256"
        },
        {
          "internalType": "uint256",
          "name": "generation",
          "type": "uint256"
        },
        {
          "internalType": "uint256",
          "name": "genes",
          "type": "uint256"
        },
        {
          "internalType": "uint256",
          "name": "birthTime",
          "type": "uint256"
        }
      ],
      "payable": false,
      "stateMutability": "view",
      "type": "function"
    },
    {
      "constant": true,
      "inputs": [
        {
          "internalType": "address",
          "name": "owner",
          "type": "address"
        }
      ],
      "name": "balanceOf",
      "outputs": [
        {
          "internalType": "uint256",
          "name": "balance",
          "type": "uint256"
        }
      ],
      "payable": false,
      "stateMutability": "view",
      "type": "function"
    },
    {
      "constant": true,
      "inputs": [],
      "name": "totalSupply",
      "outputs": [
        {
          "internalType": "uint256",
          "name": "total",
          "type": "uint256"
        }
      ],
      "payable": false,
      "stateMutability": "view",
      "type": "function"
    },
    {
      "constant": true,
      "inputs": [],
      "name": "name",
      "outputs": [
        {
          "internalType": "string",
          "name": "tokenName",
          "type": "string"
        }
      ],
      "payable": false,
      "stateMutability": "view",
      "type": "function"
    },
    {
      "constant": true,
      "inputs": [],
      "name": "symbol",
      "outputs": [
        {
          "internalType": "string",
          "name": "tokenSymbol",
          "type": "string"
        }
      ],
      "payable": false,
      "stateMutability": "view",
      "type": "function"
    },
    {
      "constant": true,
      "inputs": [
        {
          "internalType": "uint256",
          "name": "tokenId",
          "type": "uint256"
        }
      ],
      "name": "ownerOf",
      "outputs": [
        {
          "internalType": "address",
          "name": "owner",
          "type": "address"
        }
      ],
      "payable": false,
      "stateMutability": "view",
      "type": "function"
    },
    {
      "constant": false,
      "inputs": [
        {
          "internalType": "address",
          "name": "to",
          "type": "address"
        },
        {
          "internalType": "uint256",
          "name": "tokenId",
          "type": "uint256"
        }
      ],
      "name": "transfer",
      "outputs": [],
      "payable": false,
      "stateMutability": "nonpayable",
      "type": "function"
    }
  ],
  "bytecode": "0x60806040526000600155336000806101000a81548173ffffffffffffffffffffffffffffffffffffffff021916908373ffffffffffffffffffffffffffffffffffffffff160217905550610a99806100586000396000f3fe608060405234801561001057600080fd5b50600436106100885760003560e01c806395d89b411161005b57806395d89b41146101f4578063a9059cbb14610277578063d5a776ca146102c5578063e98b7f4d1461030757610088565b806306fdde031461008d57806318160ddd146101105780636352211e1461012e57806370a082311461019c575b600080fd5b610095610365565b6040518080602001828103825283818151815260200191508051906020019080838360005b838110156100d55780820151818401526020810190506100ba565b50505050905090810190601f1680156101025780820380516001836020036101000a031916815260200191505b509250505060405180910390f35b6101186103a2565b6040518082815260200191505060405180910390f35b61015a6004803603602081101561014457600080fd5b81019080803590602001909291905050506103af565b604051808273ffffffffffffffffffffffffffffffffffffffff1673ffffffffffffffffffffffffffffffffffffffff16815260200191505060405180910390f35b6101de600480360360208110156101b257600080fd5b81019080803573ffffffffffffffffffffffffffffffffffffffff1690602001909291905050506103ec565b6040518082815260200191505060405180910390f35b6101fc610435565b6040518080602001828103825283818151815260200191508051906020019080838360005b8381101561023c578082015181840152602081019050610221565b50505050905090810190601f1680156102695780820380516001836020036101000a031916815260200191505b509250505060405180910390f35b6102c36004803603604081101561028d57600080fd5b81019080803573ffffffffffffffffffffffffffffffffffffffff16906020019092919080359060200190929190505050610472565b005b6102f1600480360360208110156102db57600080fd5b8101908080359060200190929190505050610507565b6040518082815260200191505060405180910390f35b6103336004803603602081101561031d57600080fd5b8101908080359060200190929190505050610596565b604051808681526020018581526020018481526020018381526020018281526020019550505050505060405180910390f35b60606040518060400160405280600581526020017f43535f434b000000000000000000000000000000000000000000000000000000815250905090565b6000600280549050905090565b60006003600083815260200190815260200160002060009054906101000a900473ffffffffffffffffffffffffffffffffffffffff169050919050565b6000600460008373ffffffffffffffffffffffffffffffffffffffff1673ffffffffffffffffffffffffffffffffffffffff168152602001908152602001600020549050919050565b60606040518060400160405280600281526020017f434b000000000000000000000000000000000000000000000000000000000000815250905090565b600073ffffffffffffffffffffffffffffffffffffffff168273ffffffffffffffffffffffffffffffffffffffff1614156104ac57600080fd5b3073ffffffffffffffffffffffffffffffffffffffff168273ffffffffffffffffffffffffffffffffffffffff1614156104e557600080fd5b6104ef3382610657565b6104f857600080fd5b6105033383836106c3565b5050565b60008060009054906101000a900473ffffffffffffffffffffffffffffffffffffffff1673ffffffffffffffffffffffffffffffffffffffff163373ffffffffffffffffffffffffffffffffffffffff16141561059157600a6001541061056d57600080fd5b60016000815480929190600101919050555061058e60008060008533610849565b90505b919050565b600080600080600085600280549050116105af57600080fd5b6000600287815481106105be57fe5b906000526020600020906002020190508060010160089054906101000a900463ffffffff1663ffffffff16955080600101600c9054906101000a900463ffffffff1663ffffffff1694508060010160109054906101000a900461ffff1661ffff1693508060010160009054906101000a900467ffffffffffffffff1667ffffffffffffffff169150806000015492505091939590929450565b60008273ffffffffffffffffffffffffffffffffffffffff166003600084815260200190815260200160002060009054906101000a900473ffffffffffffffffffffffffffffffffffffffff1673ffffffffffffffffffffffffffffffffffffffff1614905092915050565b600460008373ffffffffffffffffffffffffffffffffffffffff1673ffffffffffffffffffffffffffffffffffffffff16815260200190815260200160002060008154809291906001019190505550816003600083815260200190815260200160002060006101000a81548173ffffffffffffffffffffffffffffffffffffffff021916908373ffffffffffffffffffffffffffffffffffffffff160217905550600073ffffffffffffffffffffffffffffffffffffffff168373ffffffffffffffffffffffffffffffffffffffff16146107e957600460008473ffffffffffffffffffffffffffffffffffffffff1673ffffffffffffffffffffffffffffffffffffffff16815260200190815260200160002060008154809291906001900391905055505b808273ffffffffffffffffffffffffffffffffffffffff168473ffffffffffffffffffffffffffffffffffffffff167fddf252ad1be2c89b69c2b068fc378daa952ba7f163c4a11628f55a4df523b3ef60405160405180910390a4505050565b6000610853610a1b565b6040518060a001604052808581526020014267ffffffffffffffff1681526020018863ffffffff1681526020018763ffffffff1681526020018661ffff168152509050600281908060018154018082558091505090600182039060005260206000209060020201600090919290919091506000820151816000015560208201518160010160006101000a81548167ffffffffffffffff021916908367ffffffffffffffff16021790555060408201518160010160086101000a81548163ffffffff021916908363ffffffff160217905550606082015181600101600c6101000a81548163ffffffff021916908363ffffffff16021790555060808201518160010160106101000a81548161ffff021916908361ffff1602179055505050506000600160028054905003905061098a600085836106c3565b7f0a5311bd2a6608f08a180df2ee7c5946819a649b204b554bb8e39825b2c50ad584828a8a89604051808673ffffffffffffffffffffffffffffffffffffffff1673ffffffffffffffffffffffffffffffffffffffff1681526020018581526020018481526020018381526020018281526020019550505050505060405180910390a1809250505095945050505050565b6040518060a0016040528060008152602001600067ffffffffffffffff168152602001600063ffffffff168152602001600063ffffffff168152602001600061ffff168152509056fea265627a7a723158209e0a708d0e440ff9023bde9f8f636fcc3790ed83504f212fcac6f610703b8fbc64736f6c63430005100032",
  "source": "// SPDX-License-Identifier: MIT\npragma solidity >=0.4.22 <0.9.0;\n\nimport \"./IERC721.sol\";\nimport \"./ownable.sol\";\n\ncontract Kittycontract is IERC721, Ownable {\n    string private constant _name = \"CS_CK\";\n    string private constant _symbol = \"CK\";\n    uint256 private constant CREATION_LIMIT_GEN0 = 10;\n    uint256 private gen0Counter = 0;\n\n    struct Kitty {\n        uint256 genes;\n        uint64 birthTime;\n        uint32 mumId;\n        uint32 dadId;\n        uint16 generation;\n    }\n    event Birth(\n        address owner,\n        uint256 kittenId,\n        uint256 mumId,\n        uint256 dadId,\n        uint256 genes\n    );\n\n    Kitty[] private _kitties;\n    mapping(uint256 => address) private _kittyIndexToOwner;\n    mapping(address => uint256) private _ownershipTokenCount;\n\n    function createKittyGen0(uint256 genes)\n        external\n        onlyOwner\n        returns (uint256)\n    {\n        require(gen0Counter < CREATION_LIMIT_GEN0);\n        gen0Counter++;\n        return _createKitty(0, 0, 0, genes, msg.sender);\n    }\n\n    function getKitty(uint256 id)\n        external\n        view\n        returns (\n            uint256 mumId,\n            uint256 dadId,\n            uint256 generation,\n            uint256 genes,\n            uint256 birthTime\n        )\n    {\n        require(_kitties.length > id);\n\n        Kitty storage k = _kitties[id];\n\n        mumId = uint256(k.mumId);\n        dadId = uint256(k.dadId);\n        generation = uint256(k.generation);\n        birthTime = uint256(k.birthTime);\n        genes = k.genes;\n    }\n\n    function _createKitty(\n        uint256 mum,\n        uint256 dad,\n        uint256 generation,\n        uint256 genes,\n        address owner\n    ) private returns (uint256) {\n        Kitty memory kitty = Kitty(\n            genes,\n            uint64(block.timestamp),\n            uint32(mum),\n            uint32(dad),\n            uint16(generation)\n        );\n\n        _kitties.push(kitty);\n        uint256 id = _kitties.length - 1;\n        _transfer(address(0), owner, id);\n\n        emit Birth(owner, id, mum, dad, genes);\n\n        return id;\n    }\n\n    function balanceOf(address owner) external view returns (uint256 balance) {\n        return _ownershipTokenCount[owner];\n    }\n\n    function totalSupply() external view returns (uint256 total) {\n        return _kitties.length;\n    }\n\n    function name() external view returns (string memory tokenName) {\n        return _name;\n    }\n\n    function symbol() external view returns (string memory tokenSymbol) {\n        return _symbol;\n    }\n\n    function ownerOf(uint256 tokenId) external view returns (address owner) {\n        return _kittyIndexToOwner[tokenId];\n    }\n\n    function transfer(address to, uint256 tokenId) external {\n        require(to != address(0));\n        require(to != address(this));\n        require(_owns(msg.sender, tokenId));\n\n        _transfer(msg.sender, to, tokenId);\n    }\n\n    function _transfer(\n        address from,\n        address to,\n        uint256 tokenId\n    ) private {\n        _ownershipTokenCount[to]++;\n        _kittyIndexToOwner[tokenId] = to;\n\n        if (from != address(0)) {\n            _ownershipTokenCount[from]--;\n        }\n\n        emit Transfer(from, to, tokenId);\n    }\n\n    function _owns(address claimant, uint256 tokenId)\n        private\n        view\n        returns (bool)\n    {\n        return _kittyIndexToOwner[tokenId] == claimant;\n    }\n}\n",
  "sourcePath": "/home/mohamed/Desktop/crypto-kitties/contracts/Kittycontract.sol",
  "compiler": {
    "name": "solc",
    "version": "0.5.16+commit.9c3226ce.Emscripten.clang"
  },
  "schemaVersion": "3.4.3",
  "updatedAt": "2021-09-21T14:26:07.138Z",
  "networkType": "ethereum",
  "devdoc": {
    "methods": {}
  },
  "userdoc": {
    "methods": {}
  }
}